{
    "_format": "hh-sol-artifact-1",
    "contractName": "Rea1Project",
    "sourceName": "contracts/Reaum.sol",
    "abi": [
        {
            "inputs": [
                {
                    "internalType": "uint256",
                    "name": "_totalSupply",
                    "type": "uint256"
                },
                {
                    "internalType": "uint256",
                    "name": "_startFrom",
                    "type": "uint256"
                }
            ],
            "stateMutability": "nonpayable",
            "type": "constructor"
        },
        {
            "anonymous": false,
            "inputs": [
                {
                    "indexed": true,
                    "internalType": "address",
                    "name": "owner",
                    "type": "address"
                },
                {
                    "indexed": true,
                    "internalType": "address",
                    "name": "approved",
                    "type": "address"
                },
                {
                    "indexed": true,
                    "internalType": "uint256",
                    "name": "tokenId",
                    "type": "uint256"
                }
            ],
            "name": "Approval",
            "type": "event"
        },
        {
            "anonymous": false,
            "inputs": [
                {
                    "indexed": true,
                    "internalType": "address",
                    "name": "owner",
                    "type": "address"
                },
                {
                    "indexed": true,
                    "internalType": "address",
                    "name": "operator",
                    "type": "address"
                },
                {
                    "indexed": false,
                    "internalType": "bool",
                    "name": "approved",
                    "type": "bool"
                }
            ],
            "name": "ApprovalForAll",
            "type": "event"
        },
        {
            "anonymous": false,
            "inputs": [
                {
                    "indexed": true,
                    "internalType": "address",
                    "name": "previousOwner",
                    "type": "address"
                },
                {
                    "indexed": true,
                    "internalType": "address",
                    "name": "newOwner",
                    "type": "address"
                }
            ],
            "name": "OwnershipTransferred",
            "type": "event"
        },
        {
            "anonymous": false,
            "inputs": [
                {
                    "indexed": true,
                    "internalType": "uint256",
                    "name": "supply",
                    "type": "uint256"
                }
            ],
            "name": "SupplyChanged",
            "type": "event"
        },
        {
            "anonymous": false,
            "inputs": [
                {
                    "indexed": true,
                    "internalType": "address",
                    "name": "from",
                    "type": "address"
                },
                {
                    "indexed": true,
                    "internalType": "address",
                    "name": "to",
                    "type": "address"
                },
                {
                    "indexed": true,
                    "internalType": "uint256",
                    "name": "tokenId",
                    "type": "uint256"
                }
            ],
            "name": "Transfer",
            "type": "event"
        },
        {
            "inputs": [],
            "name": "ContractbalanceOf",
            "outputs": [
                {
                    "internalType": "uint256",
                    "name": "",
                    "type": "uint256"
                }
            ],
            "stateMutability": "view",
            "type": "function"
        },
        {
            "inputs": [
                {
                    "internalType": "address",
                    "name": "",
                    "type": "address"
                }
            ],
            "name": "addressMintedBalance",
            "outputs": [
                {
                    "internalType": "uint256",
                    "name": "",
                    "type": "uint256"
                }
            ],
            "stateMutability": "view",
            "type": "function"
        },
        {
            "inputs": [
                {
                    "internalType": "address",
                    "name": "to",
                    "type": "address"
                },
                {
                    "internalType": "uint256",
                    "name": "tokenId",
                    "type": "uint256"
                }
            ],
            "name": "approve",
            "outputs": [],
            "stateMutability": "nonpayable",
            "type": "function"
        },
        {
            "inputs": [],
            "name": "availableTokenCount",
            "outputs": [
                {
                    "internalType": "uint256",
                    "name": "",
                    "type": "uint256"
                }
            ],
            "stateMutability": "view",
            "type": "function"
        },
        {
            "inputs": [
                {
                    "internalType": "address",
                    "name": "owner",
                    "type": "address"
                }
            ],
            "name": "balanceOf",
            "outputs": [
                {
                    "internalType": "uint256",
                    "name": "",
                    "type": "uint256"
                }
            ],
            "stateMutability": "view",
            "type": "function"
        },
        {
            "inputs": [],
            "name": "baseURI",
            "outputs": [
                {
                    "internalType": "string",
                    "name": "",
                    "type": "string"
                }
            ],
            "stateMutability": "view",
            "type": "function"
        },
        {
            "inputs": [],
            "name": "cost",
            "outputs": [
                {
                    "internalType": "uint256",
                    "name": "",
                    "type": "uint256"
                }
            ],
            "stateMutability": "view",
            "type": "function"
        },
        {
            "inputs": [],
            "name": "currentSupply",
            "outputs": [
                {
                    "internalType": "uint256",
                    "name": "",
                    "type": "uint256"
                }
            ],
            "stateMutability": "view",
            "type": "function"
        },
        {
            "inputs": [
                {
                    "internalType": "uint256",
                    "name": "tokenId",
                    "type": "uint256"
                }
            ],
            "name": "getApproved",
            "outputs": [
                {
                    "internalType": "address",
                    "name": "",
                    "type": "address"
                }
            ],
            "stateMutability": "view",
            "type": "function"
        },
        {
            "inputs": [
                {
                    "internalType": "address",
                    "name": "owner",
                    "type": "address"
                },
                {
                    "internalType": "address",
                    "name": "operator",
                    "type": "address"
                }
            ],
            "name": "isApprovedForAll",
            "outputs": [
                {
                    "internalType": "bool",
                    "name": "",
                    "type": "bool"
                }
            ],
            "stateMutability": "view",
            "type": "function"
        },
        {
            "inputs": [
                {
                    "internalType": "uint256",
                    "name": "_mintAmount",
                    "type": "uint256"
                }
            ],
            "name": "mint",
            "outputs": [],
            "stateMutability": "payable",
            "type": "function"
        },
        {
            "inputs": [],
            "name": "name",
            "outputs": [
                {
                    "internalType": "string",
                    "name": "",
                    "type": "string"
                }
            ],
            "stateMutability": "view",
            "type": "function"
        },
        {
            "inputs": [],
            "name": "nftPerAddressLimit",
            "outputs": [
                {
                    "internalType": "uint256",
                    "name": "",
                    "type": "uint256"
                }
            ],
            "stateMutability": "view",
            "type": "function"
        },
        {
            "inputs": [],
            "name": "owner",
            "outputs": [
                {
                    "internalType": "address",
                    "name": "",
                    "type": "address"
                }
            ],
            "stateMutability": "view",
            "type": "function"
        },
        {
            "inputs": [
                {
                    "internalType": "uint256",
                    "name": "tokenId",
                    "type": "uint256"
                }
            ],
            "name": "ownerOf",
            "outputs": [
                {
                    "internalType": "address",
                    "name": "",
                    "type": "address"
                }
            ],
            "stateMutability": "view",
            "type": "function"
        },
        {
            "inputs": [],
            "name": "renounceOwnership",
            "outputs": [],
            "stateMutability": "nonpayable",
            "type": "function"
        },
        {
            "inputs": [
                {
                    "internalType": "address",
                    "name": "from",
                    "type": "address"
                },
                {
                    "internalType": "address",
                    "name": "to",
                    "type": "address"
                },
                {
                    "internalType": "uint256",
                    "name": "tokenId",
                    "type": "uint256"
                }
            ],
            "name": "safeTransferFrom",
            "outputs": [],
            "stateMutability": "nonpayable",
            "type": "function"
        },
        {
            "inputs": [
                {
                    "internalType": "address",
                    "name": "from",
                    "type": "address"
                },
                {
                    "internalType": "address",
                    "name": "to",
                    "type": "address"
                },
                {
                    "internalType": "uint256",
                    "name": "tokenId",
                    "type": "uint256"
                },
                {
                    "internalType": "bytes",
                    "name": "_data",
                    "type": "bytes"
                }
            ],
            "name": "safeTransferFrom",
            "outputs": [],
            "stateMutability": "nonpayable",
            "type": "function"
        },
        {
            "inputs": [
                {
                    "internalType": "address",
                    "name": "operator",
                    "type": "address"
                },
                {
                    "internalType": "bool",
                    "name": "approved",
                    "type": "bool"
                }
            ],
            "name": "setApprovalForAll",
            "outputs": [],
            "stateMutability": "nonpayable",
            "type": "function"
        },
        {
            "inputs": [
                {
                    "internalType": "bytes4",
                    "name": "interfaceId",
                    "type": "bytes4"
                }
            ],
            "name": "supportsInterface",
            "outputs": [
                {
                    "internalType": "bool",
                    "name": "",
                    "type": "bool"
                }
            ],
            "stateMutability": "view",
            "type": "function"
        },
        {
            "inputs": [],
            "name": "symbol",
            "outputs": [
                {
                    "internalType": "string",
                    "name": "",
                    "type": "string"
                }
            ],
            "stateMutability": "view",
            "type": "function"
        },
        {
            "inputs": [],
            "name": "tokenCount",
            "outputs": [
                {
                    "internalType": "uint256",
                    "name": "",
                    "type": "uint256"
                }
            ],
            "stateMutability": "view",
            "type": "function"
        },
        {
            "inputs": [
                {
                    "internalType": "uint256",
                    "name": "tokenId",
                    "type": "uint256"
                }
            ],
            "name": "tokenURI",
            "outputs": [
                {
                    "internalType": "string",
                    "name": "",
                    "type": "string"
                }
            ],
            "stateMutability": "view",
            "type": "function"
        },
        {
            "inputs": [],
            "name": "totalSupply",
            "outputs": [
                {
                    "internalType": "uint256",
                    "name": "",
                    "type": "uint256"
                }
            ],
            "stateMutability": "view",
            "type": "function"
        },
        {
            "inputs": [
                {
                    "internalType": "address",
                    "name": "from",
                    "type": "address"
                },
                {
                    "internalType": "address",
                    "name": "to",
                    "type": "address"
                },
                {
                    "internalType": "uint256",
                    "name": "tokenId",
                    "type": "uint256"
                }
            ],
            "name": "transferFrom",
            "outputs": [],
            "stateMutability": "nonpayable",
            "type": "function"
        },
        {
            "inputs": [
                {
                    "internalType": "address",
                    "name": "newOwner",
                    "type": "address"
                }
            ],
            "name": "transferOwnership",
            "outputs": [],
            "stateMutability": "nonpayable",
            "type": "function"
        },
        {
            "inputs": [],
            "name": "withdraw",
            "outputs": [],
            "stateMutability": "payable",
            "type": "function"
        }
    ],
    "bytecode": "0x60806040526000600b556005600c5566038d7ea4c68000600d5560405180606001604052806036815260200162004fca60369139600e90805190602001906200004a92919062000cf9565b503480156200005857600080fd5b50604051620050003803806200500083398181016040528101906200007e919062000e03565b8181816040518060400160405280601181526020017f5465737420526561312050726f6a6563740000000000000000000000000000008152506040518060400160405280600581526020017f523334317300000000000000000000000000000000000000000000000000000081525081600090805190602001906200010592919062000cf9565b5080600190805190602001906200011e92919062000cf9565b50505062000141620001356200019360201b60201c565b6200019b60201b60201c565b806008819055505080600a8190555050506000600190505b600581116200018a576200017460016200026160201b60201c565b80806200018190620015e1565b91505062000159565b5050506200178c565b600033905090565b6000600660009054906101000a900473ffffffffffffffffffffffffffffffffffffffff16905081600660006101000a81548173ffffffffffffffffffffffffffffffffffffffff021916908373ffffffffffffffffffffffffffffffffffffffff1602179055508173ffffffffffffffffffffffffffffffffffffffff168173ffffffffffffffffffffffffffffffffffffffff167f8be0079c531659141344cd1fd0a4f28419497f9722a3daafe3b4186f6b6457e060405160405180910390a35050565b620002716200059660201b60201c565b600162000283620005a060201b60201c565b6200028f9190620013fe565b1115620002d3576040517f08c379a0000000000000000000000000000000000000000000000000000000008152600401620002ca906200136b565b60405180910390fd5b60006001620002e7620005be60201b60201c565b620002f39190620014bc565b101562000337576040517f08c379a00000000000000000000000000000000000000000000000000000000081526004016200032e9062001305565b60405180910390fd5b3373ffffffffffffffffffffffffffffffffffffffff163273ffffffffffffffffffffffffffffffffffffffff1614620003a8576040517f08c379a00000000000000000000000000000000000000000000000000000000081526004016200039f90620012e3565b60405180910390fd5b620003b8620005f160201b60201c565b73ffffffffffffffffffffffffffffffffffffffff163373ffffffffffffffffffffffffffffffffffffffff1614620004d55780600d54620003fb91906200145b565b34101562000440576040517f08c379a00000000000000000000000000000000000000000000000000000000081526004016200043790620013af565b60405180910390fd5b600c5481600f60003373ffffffffffffffffffffffffffffffffffffffff1673ffffffffffffffffffffffffffffffffffffffff16815260200190815260200160002054620004909190620013fe565b1115620004d4576040517f08c379a0000000000000000000000000000000000000000000000000000000008152600401620004cb9062001327565b60405180910390fd5b5b6000600190505b81811162000592576000620004f66200061b60201b60201c565b9050600f60003373ffffffffffffffffffffffffffffffffffffffff1673ffffffffffffffffffffffffffffffffffffffff16815260200190815260200160002060008154809291906200054a90620015e1565b9190505550620005613382620007e360201b60201c565b600b60008154809291906200057690620015e1565b91905055505080806200058990620015e1565b915050620004dc565b5050565b6000600854905090565b6000620005b960076200080960201b620013df1760201c565b905090565b6000620005d0620005a060201b60201c565b620005e06200059660201b60201c565b620005ec9190620014bc565b905090565b6000600660009054906101000a900473ffffffffffffffffffffffffffffffffffffffff16905090565b6000806200062e620005be60201b60201c565b1162000671576040517f08c379a0000000000000000000000000000000000000000000000000000000008152600401620006689062001349565b60405180910390fd5b600062000683620005a060201b60201c565b620006936200059660201b60201c565b6200069f9190620014bc565b90506000813341444542604051602001620006bf959493929190620011e2565b6040516020818303038152906040528051906020012060001c620006e4919062001675565b9050600080600960008481526020019081526020016000205414156200070d5781905062000724565b600960008381526020019081526020016000205490505b600060096000600186620007399190620014bc565b81526020019081526020016000205414156200077b576001836200075e9190620014bc565b6009600084815260200190815260200160002081905550620007b5565b600960006001856200078e9190620014bc565b81526020019081526020016000205460096000848152602001908152602001600020819055505b620007ca6200081760201b620013ed1760201c565b50600a5481620007db9190620013fe565b935050505090565b620008058282604051806020016040528060008152506200085160201b60201c565b5050565b600081600001549050919050565b6000806200083160076200080960201b620013df1760201c565b90506200084a6007620008bf60201b6200140d1760201c565b8091505090565b620008638383620008d560201b60201c565b62000878600084848462000abb60201b60201c565b620008ba576040517f08c379a0000000000000000000000000000000000000000000000000000000008152600401620008b1906200129f565b60405180910390fd5b505050565b6001816000016000828254019250508190555050565b600073ffffffffffffffffffffffffffffffffffffffff168273ffffffffffffffffffffffffffffffffffffffff16141562000948576040517f08c379a00000000000000000000000000000000000000000000000000000000081526004016200093f906200138d565b60405180910390fd5b620009598162000c7560201b60201c565b156200099c576040517f08c379a00000000000000000000000000000000000000000000000000000000081526004016200099390620012c1565b60405180910390fd5b620009b06000838362000ce160201b60201c565b6001600360008473ffffffffffffffffffffffffffffffffffffffff1673ffffffffffffffffffffffffffffffffffffffff168152602001908152602001600020600082825462000a029190620013fe565b92505081905550816002600083815260200190815260200160002060006101000a81548173ffffffffffffffffffffffffffffffffffffffff021916908373ffffffffffffffffffffffffffffffffffffffff160217905550808273ffffffffffffffffffffffffffffffffffffffff16600073ffffffffffffffffffffffffffffffffffffffff167fddf252ad1be2c89b69c2b068fc378daa952ba7f163c4a11628f55a4df523b3ef60405160405180910390a45050565b600062000ae98473ffffffffffffffffffffffffffffffffffffffff1662000ce660201b620014231760201c565b1562000c68578373ffffffffffffffffffffffffffffffffffffffff1663150b7a0262000b1b6200019360201b60201c565b8786866040518563ffffffff1660e01b815260040162000b3f94939291906200124b565b602060405180830381600087803b15801562000b5a57600080fd5b505af192505050801562000b8e57506040513d601f19601f8201168201806040525081019062000b8b919062000dd7565b60015b62000c17573d806000811462000bc1576040519150601f19603f3d011682016040523d82523d6000602084013e62000bc6565b606091505b5060008151141562000c0f576040517f08c379a000000000000000000000000000000000000000000000000000000000815260040162000c06906200129f565b60405180910390fd5b805181602001fd5b63150b7a0260e01b7bffffffffffffffffffffffffffffffffffffffffffffffffffffffff1916817bffffffffffffffffffffffffffffffffffffffffffffffffffffffff19161491505062000c6d565b600190505b949350505050565b60008073ffffffffffffffffffffffffffffffffffffffff166002600084815260200190815260200160002060009054906101000a900473ffffffffffffffffffffffffffffffffffffffff1673ffffffffffffffffffffffffffffffffffffffff1614159050919050565b505050565b600080823b905060008111915050919050565b82805462000d0790620015ab565b90600052602060002090601f01602090048101928262000d2b576000855562000d77565b82601f1062000d4657805160ff191683800117855562000d77565b8280016001018555821562000d77579182015b8281111562000d7657825182559160200191906001019062000d59565b5b50905062000d86919062000d8a565b5090565b5b8082111562000da557600081600090555060010162000d8b565b5090565b60008151905062000dba8162001758565b92915050565b60008151905062000dd18162001772565b92915050565b60006020828403121562000dea57600080fd5b600062000dfa8482850162000da9565b91505092915050565b6000806040838503121562000e1757600080fd5b600062000e278582860162000dc0565b925050602062000e3a8582860162000dc0565b9150509250929050565b62000e5962000e53826200150b565b62001643565b82525050565b62000e6a81620014f7565b82525050565b62000e8562000e7f82620014f7565b6200162f565b82525050565b600062000e9882620013d1565b62000ea48185620013dc565b935062000eb681856020860162001575565b62000ec1816200173a565b840191505092915050565b600062000edb603283620013ed565b91507f4552433732313a207472616e7366657220746f206e6f6e20455243373231526560008301527f63656976657220696d706c656d656e74657200000000000000000000000000006020830152604082019050919050565b600062000f43601c83620013ed565b91507f4552433732313a20746f6b656e20616c7265616479206d696e746564000000006000830152602082019050919050565b600062000f85602583620013ed565b91507f43414e4e4f54204d494e54205448524f554748204120435553544f4d20434f4e60008301527f54524143540000000000000000000000000000000000000000000000000000006020830152604082019050919050565b600062000fed602d83620013ed565b91507f594f552043414e2754204d494e54204d4f5245205448414e204156414c41424c60008301527f4520544f4b454e20434f554e54000000000000000000000000000000000000006020830152604082019050919050565b600062001055601c83620013ed565b91507f6d6178204e4654207065722061646472657373206578636565646564000000006000830152602082019050919050565b600062001097601883620013ed565b91507f4e6f206d6f726520746f6b656e7320617661696c61626c6500000000000000006000830152602082019050919050565b6000620010d9602783620013ed565b91507f594f552043414e2754204d494e54204d4f5245205448414e204d4158494d554d60008301527f20535550504c59000000000000000000000000000000000000000000000000006020830152604082019050919050565b600062001141602083620013ed565b91507f4552433732313a206d696e7420746f20746865207a65726f20616464726573736000830152602082019050919050565b600062001183601283620013ed565b91507f696e73756666696369656e742066756e647300000000000000000000000000006000830152602082019050919050565b620011c1816200156b565b82525050565b620011dc620011d6826200156b565b6200166b565b82525050565b6000620011f0828862000e70565b60148201915062001202828762000e44565b601482019150620012148286620011c7565b602082019150620012268285620011c7565b602082019150620012388284620011c7565b6020820191508190509695505050505050565b600060808201905062001262600083018762000e5f565b62001271602083018662000e5f565b620012806040830185620011b6565b818103606083015262001294818462000e8b565b905095945050505050565b60006020820190508181036000830152620012ba8162000ecc565b9050919050565b60006020820190508181036000830152620012dc8162000f34565b9050919050565b60006020820190508181036000830152620012fe8162000f76565b9050919050565b60006020820190508181036000830152620013208162000fde565b9050919050565b60006020820190508181036000830152620013428162001046565b9050919050565b60006020820190508181036000830152620013648162001088565b9050919050565b600060208201905081810360008301526200138681620010ca565b9050919050565b60006020820190508181036000830152620013a88162001132565b9050919050565b60006020820190508181036000830152620013ca8162001174565b9050919050565b600081519050919050565b600082825260208201905092915050565b600082825260208201905092915050565b60006200140b826200156b565b915062001418836200156b565b9250827fffffffffffffffffffffffffffffffffffffffffffffffffffffffffffffffff0382111562001450576200144f620016ad565b5b828201905092915050565b600062001468826200156b565b915062001475836200156b565b9250817fffffffffffffffffffffffffffffffffffffffffffffffffffffffffffffffff0483118215151615620014b157620014b0620016ad565b5b828202905092915050565b6000620014c9826200156b565b9150620014d6836200156b565b925082821015620014ec57620014eb620016ad565b5b828203905092915050565b600062001504826200154b565b9050919050565b600062001518826200154b565b9050919050565b60007fffffffff0000000000000000000000000000000000000000000000000000000082169050919050565b600073ffffffffffffffffffffffffffffffffffffffff82169050919050565b6000819050919050565b60005b838110156200159557808201518184015260208101905062001578565b83811115620015a5576000848401525b50505050565b60006002820490506001821680620015c457607f821691505b60208210811415620015db57620015da6200170b565b5b50919050565b6000620015ee826200156b565b91507fffffffffffffffffffffffffffffffffffffffffffffffffffffffffffffffff821415620016245762001623620016ad565b5b600182019050919050565b60006200163c8262001657565b9050919050565b6000620016508262001657565b9050919050565b600062001664826200174b565b9050919050565b6000819050919050565b600062001682826200156b565b91506200168f836200156b565b925082620016a257620016a1620016dc565b5b828206905092915050565b7f4e487b7100000000000000000000000000000000000000000000000000000000600052601160045260246000fd5b7f4e487b7100000000000000000000000000000000000000000000000000000000600052601260045260246000fd5b7f4e487b7100000000000000000000000000000000000000000000000000000000600052602260045260246000fd5b6000601f19601f8301169050919050565b60008160601b9050919050565b62001763816200151f565b81146200176f57600080fd5b50565b6200177d816200156b565b81146200178957600080fd5b50565b61382e806200179c6000396000f3fe60806040526004361061019c5760003560e01c806370a08231116100ec578063a22cb4651161008a578063c87b56dd11610064578063c87b56dd1461058a578063e14ca353146105c7578063e985e9c5146105f2578063f2fde38b1461062f5761019c565b8063a22cb4651461050d578063b88d4fde14610536578063ba7d2c761461055f5761019c565b80638da5cb5b116100c65780638da5cb5b1461047057806395d89b411461049b5780639f181b5e146104c6578063a0712d68146104f15761019c565b806370a08231146103f1578063715018a61461042e578063771282f6146104455761019c565b806318cae2691161015957806342842e0e1161013357806342842e0e146103355780634c64cf3e1461035e5780636352211e146103895780636c0360eb146103c65761019c565b806318cae269146102c557806323b872dd146103025780633ccfd60b1461032b5761019c565b806301ffc9a7146101a157806306fdde03146101de578063081812fc14610209578063095ea7b31461024657806313faede61461026f57806318160ddd1461029a575b600080fd5b3480156101ad57600080fd5b506101c860048036038101906101c391906125be565b610658565b6040516101d5919061303d565b60405180910390f35b3480156101ea57600080fd5b506101f361073a565b6040516102009190613058565b60405180910390f35b34801561021557600080fd5b50610230600480360381019061022b9190612610565b6107cc565b60405161023d9190612fd6565b60405180910390f35b34801561025257600080fd5b5061026d60048036038101906102689190612582565b610851565b005b34801561027b57600080fd5b50610284610969565b604051610291919061333a565b60405180910390f35b3480156102a657600080fd5b506102af61096f565b6040516102bc919061333a565b60405180910390f35b3480156102d157600080fd5b506102ec60048036038101906102e79190612417565b610979565b6040516102f9919061333a565b60405180910390f35b34801561030e57600080fd5b506103296004803603810190610324919061247c565b610991565b005b6103336109f1565b005b34801561034157600080fd5b5061035c6004803603810190610357919061247c565b610aad565b005b34801561036a57600080fd5b50610373610acd565b604051610380919061333a565b60405180910390f35b34801561039557600080fd5b506103b060048036038101906103ab9190612610565b610ad5565b6040516103bd9190612fd6565b60405180910390f35b3480156103d257600080fd5b506103db610b87565b6040516103e89190613058565b60405180910390f35b3480156103fd57600080fd5b5061041860048036038101906104139190612417565b610c15565b604051610425919061333a565b60405180910390f35b34801561043a57600080fd5b50610443610ccd565b005b34801561045157600080fd5b5061045a610d55565b604051610467919061333a565b60405180910390f35b34801561047c57600080fd5b50610485610d5b565b6040516104929190612fd6565b60405180910390f35b3480156104a757600080fd5b506104b0610d85565b6040516104bd9190613058565b60405180910390f35b3480156104d257600080fd5b506104db610e17565b6040516104e8919061333a565b60405180910390f35b61050b60048036038101906105069190612610565b610e28565b005b34801561051957600080fd5b50610534600480360381019061052f9190612546565b61110d565b005b34801561054257600080fd5b5061055d600480360381019061055891906124cb565b611123565b005b34801561056b57600080fd5b50610574611185565b604051610581919061333a565b60405180910390f35b34801561059657600080fd5b506105b160048036038101906105ac9190612610565b61118b565b6040516105be9190613058565b60405180910390f35b3480156105d357600080fd5b506105dc611232565b6040516105e9919061333a565b60405180910390f35b3480156105fe57600080fd5b5061061960048036038101906106149190612440565b611253565b604051610626919061303d565b60405180910390f35b34801561063b57600080fd5b5061065660048036038101906106519190612417565b6112e7565b005b60007f80ac58cd000000000000000000000000000000000000000000000000000000007bffffffffffffffffffffffffffffffffffffffffffffffffffffffff1916827bffffffffffffffffffffffffffffffffffffffffffffffffffffffff1916148061072357507f5b5e139f000000000000000000000000000000000000000000000000000000007bffffffffffffffffffffffffffffffffffffffffffffffffffffffff1916827bffffffffffffffffffffffffffffffffffffffffffffffffffffffff1916145b80610733575061073282611436565b5b9050919050565b606060008054610749906135d6565b80601f0160208091040260200160405190810160405280929190818152602001828054610775906135d6565b80156107c25780601f10610797576101008083540402835291602001916107c2565b820191906000526020600020905b8154815290600101906020018083116107a557829003601f168201915b5050505050905090565b60006107d7826114a0565b610816576040517f08c379a000000000000000000000000000000000000000000000000000000000815260040161080d9061325a565b60405180910390fd5b6004600083815260200190815260200160002060009054906101000a900473ffffffffffffffffffffffffffffffffffffffff169050919050565b600061085c82610ad5565b90508073ffffffffffffffffffffffffffffffffffffffff168373ffffffffffffffffffffffffffffffffffffffff1614156108cd576040517f08c379a00000000000000000000000000000000000000000000000000000000081526004016108c4906132da565b60405180910390fd5b8073ffffffffffffffffffffffffffffffffffffffff166108ec61150c565b73ffffffffffffffffffffffffffffffffffffffff16148061091b575061091a8161091561150c565b611253565b5b61095a576040517f08c379a0000000000000000000000000000000000000000000000000000000008152600401610951906131ba565b60405180910390fd5b6109648383611514565b505050565b600d5481565b6000600854905090565b600f6020528060005260406000206000915090505481565b6109a261099c61150c565b826115cd565b6109e1576040517f08c379a00000000000000000000000000000000000000000000000000000000081526004016109d89061331a565b60405180910390fd5b6109ec8383836116ab565b505050565b6109f961150c565b73ffffffffffffffffffffffffffffffffffffffff16610a17610d5b565b73ffffffffffffffffffffffffffffffffffffffff1614610a6d576040517f08c379a0000000000000000000000000000000000000000000000000000000008152600401610a649061327a565b60405180910390fd5b3373ffffffffffffffffffffffffffffffffffffffff166108fc479081150290604051600060405180830381858888f19350505050610aab57600080fd5b565b610ac883838360405180602001604052806000815250611123565b505050565b600047905090565b6000806002600084815260200190815260200160002060009054906101000a900473ffffffffffffffffffffffffffffffffffffffff169050600073ffffffffffffffffffffffffffffffffffffffff168173ffffffffffffffffffffffffffffffffffffffff161415610b7e576040517f08c379a0000000000000000000000000000000000000000000000000000000008152600401610b75906131fa565b60405180910390fd5b80915050919050565b600e8054610b94906135d6565b80601f0160208091040260200160405190810160405280929190818152602001828054610bc0906135d6565b8015610c0d5780601f10610be257610100808354040283529160200191610c0d565b820191906000526020600020905b815481529060010190602001808311610bf057829003601f168201915b505050505081565b60008073ffffffffffffffffffffffffffffffffffffffff168273ffffffffffffffffffffffffffffffffffffffff161415610c86576040517f08c379a0000000000000000000000000000000000000000000000000000000008152600401610c7d906131da565b60405180910390fd5b600360008373ffffffffffffffffffffffffffffffffffffffff1673ffffffffffffffffffffffffffffffffffffffff168152602001908152602001600020549050919050565b610cd561150c565b73ffffffffffffffffffffffffffffffffffffffff16610cf3610d5b565b73ffffffffffffffffffffffffffffffffffffffff1614610d49576040517f08c379a0000000000000000000000000000000000000000000000000000000008152600401610d409061327a565b60405180910390fd5b610d536000611907565b565b600b5481565b6000600660009054906101000a900473ffffffffffffffffffffffffffffffffffffffff16905090565b606060018054610d94906135d6565b80601f0160208091040260200160405190810160405280929190818152602001828054610dc0906135d6565b8015610e0d5780601f10610de257610100808354040283529160200191610e0d565b820191906000526020600020905b815481529060010190602001808311610df057829003601f168201915b5050505050905090565b6000610e2360076113df565b905090565b610e3061096f565b6001610e3a610e17565b610e4491906133f9565b1115610e85576040517f08c379a0000000000000000000000000000000000000000000000000000000008152600401610e7c9061321a565b60405180910390fd5b60006001610e91611232565b610e9b91906134da565b1015610edc576040517f08c379a0000000000000000000000000000000000000000000000000000000008152600401610ed3906130fa565b60405180910390fd5b3373ffffffffffffffffffffffffffffffffffffffff163273ffffffffffffffffffffffffffffffffffffffff1614610f4a576040517f08c379a0000000000000000000000000000000000000000000000000000000008152600401610f41906130da565b60405180910390fd5b610f52610d5b565b73ffffffffffffffffffffffffffffffffffffffff163373ffffffffffffffffffffffffffffffffffffffff16146110645780600d54610f929190613480565b341015610fd4576040517f08c379a0000000000000000000000000000000000000000000000000000000008152600401610fcb906132fa565b60405180910390fd5b600c5481600f60003373ffffffffffffffffffffffffffffffffffffffff1673ffffffffffffffffffffffffffffffffffffffff1681526020019081526020016000205461102291906133f9565b1115611063576040517f08c379a000000000000000000000000000000000000000000000000000000000815260040161105a9061311a565b60405180910390fd5b5b6000600190505b81811161110957600061107c6119cd565b9050600f60003373ffffffffffffffffffffffffffffffffffffffff1673ffffffffffffffffffffffffffffffffffffffff16815260200190815260200160002060008154809291906110ce90613608565b91905055506110dd3382611b5b565b600b60008154809291906110f090613608565b919050555050808061110190613608565b91505061106b565b5050565b61111f61111861150c565b8383611b79565b5050565b61113461112e61150c565b836115cd565b611173576040517f08c379a000000000000000000000000000000000000000000000000000000000815260040161116a9061331a565b60405180910390fd5b61117f84848484611ce6565b50505050565b600c5481565b6060611196826114a0565b6111d5576040517f08c379a00000000000000000000000000000000000000000000000000000000081526004016111cc9061329a565b60405180910390fd5b60006111df611d42565b905060008151116111ff576040518060200160405280600081525061122a565b8061120984611dd4565b60405160200161121a929190612fa7565b6040516020818303038152906040525b915050919050565b600061123c610e17565b61124461096f565b61124e91906134da565b905090565b6000600560008473ffffffffffffffffffffffffffffffffffffffff1673ffffffffffffffffffffffffffffffffffffffff16815260200190815260200160002060008373ffffffffffffffffffffffffffffffffffffffff1673ffffffffffffffffffffffffffffffffffffffff16815260200190815260200160002060009054906101000a900460ff16905092915050565b6112ef61150c565b73ffffffffffffffffffffffffffffffffffffffff1661130d610d5b565b73ffffffffffffffffffffffffffffffffffffffff1614611363576040517f08c379a000000000000000000000000000000000000000000000000000000000815260040161135a9061327a565b60405180910390fd5b600073ffffffffffffffffffffffffffffffffffffffff168173ffffffffffffffffffffffffffffffffffffffff1614156113d3576040517f08c379a00000000000000000000000000000000000000000000000000000000081526004016113ca9061309a565b60405180910390fd5b6113dc81611907565b50565b600081600001549050919050565b6000806113fa60076113df565b9050611406600761140d565b8091505090565b6001816000016000828254019250508190555050565b600080823b905060008111915050919050565b60007f01ffc9a7000000000000000000000000000000000000000000000000000000007bffffffffffffffffffffffffffffffffffffffffffffffffffffffff1916827bffffffffffffffffffffffffffffffffffffffffffffffffffffffff1916149050919050565b60008073ffffffffffffffffffffffffffffffffffffffff166002600084815260200190815260200160002060009054906101000a900473ffffffffffffffffffffffffffffffffffffffff1673ffffffffffffffffffffffffffffffffffffffff1614159050919050565b600033905090565b816004600083815260200190815260200160002060006101000a81548173ffffffffffffffffffffffffffffffffffffffff021916908373ffffffffffffffffffffffffffffffffffffffff160217905550808273ffffffffffffffffffffffffffffffffffffffff1661158783610ad5565b73ffffffffffffffffffffffffffffffffffffffff167f8c5be1e5ebec7d5bd14f71427d1e84f3dd0314c0f7b2291e5b200ac8c7c3b92560405160405180910390a45050565b60006115d8826114a0565b611617576040517f08c379a000000000000000000000000000000000000000000000000000000000815260040161160e9061319a565b60405180910390fd5b600061162283610ad5565b90508073ffffffffffffffffffffffffffffffffffffffff168473ffffffffffffffffffffffffffffffffffffffff16148061169157508373ffffffffffffffffffffffffffffffffffffffff16611679846107cc565b73ffffffffffffffffffffffffffffffffffffffff16145b806116a257506116a18185611253565b5b91505092915050565b8273ffffffffffffffffffffffffffffffffffffffff166116cb82610ad5565b73ffffffffffffffffffffffffffffffffffffffff1614611721576040517f08c379a0000000000000000000000000000000000000000000000000000000008152600401611718906132ba565b60405180910390fd5b600073ffffffffffffffffffffffffffffffffffffffff168273ffffffffffffffffffffffffffffffffffffffff161415611791576040517f08c379a00000000000000000000000000000000000000000000000000000000081526004016117889061313a565b60405180910390fd5b61179c838383611f81565b6117a7600082611514565b6001600360008573ffffffffffffffffffffffffffffffffffffffff1673ffffffffffffffffffffffffffffffffffffffff16815260200190815260200160002060008282546117f791906134da565b925050819055506001600360008473ffffffffffffffffffffffffffffffffffffffff1673ffffffffffffffffffffffffffffffffffffffff168152602001908152602001600020600082825461184e91906133f9565b92505081905550816002600083815260200190815260200160002060006101000a81548173ffffffffffffffffffffffffffffffffffffffff021916908373ffffffffffffffffffffffffffffffffffffffff160217905550808273ffffffffffffffffffffffffffffffffffffffff168473ffffffffffffffffffffffffffffffffffffffff167fddf252ad1be2c89b69c2b068fc378daa952ba7f163c4a11628f55a4df523b3ef60405160405180910390a4505050565b6000600660009054906101000a900473ffffffffffffffffffffffffffffffffffffffff16905081600660006101000a81548173ffffffffffffffffffffffffffffffffffffffff021916908373ffffffffffffffffffffffffffffffffffffffff1602179055508173ffffffffffffffffffffffffffffffffffffffff168173ffffffffffffffffffffffffffffffffffffffff167f8be0079c531659141344cd1fd0a4f28419497f9722a3daafe3b4186f6b6457e060405160405180910390a35050565b6000806119d8611232565b11611a18576040517f08c379a0000000000000000000000000000000000000000000000000000000008152600401611a0f9061317a565b60405180910390fd5b6000611a22610e17565b611a2a61096f565b611a3491906134da565b90506000813341444542604051602001611a52959493929190612f48565b6040516020818303038152906040528051906020012060001c611a759190613691565b905060008060096000848152602001908152602001600020541415611a9c57819050611ab3565b600960008381526020019081526020016000205490505b600060096000600186611ac691906134da565b8152602001908152602001600020541415611b0457600183611ae891906134da565b6009600084815260200190815260200160002081905550611b3c565b60096000600185611b1591906134da565b81526020019081526020016000205460096000848152602001908152602001600020819055505b611b446113ed565b50600a5481611b5391906133f9565b935050505090565b611b75828260405180602001604052806000815250611f86565b5050565b8173ffffffffffffffffffffffffffffffffffffffff168373ffffffffffffffffffffffffffffffffffffffff161415611be8576040517f08c379a0000000000000000000000000000000000000000000000000000000008152600401611bdf9061315a565b60405180910390fd5b80600560008573ffffffffffffffffffffffffffffffffffffffff1673ffffffffffffffffffffffffffffffffffffffff16815260200190815260200160002060008473ffffffffffffffffffffffffffffffffffffffff1673ffffffffffffffffffffffffffffffffffffffff16815260200190815260200160002060006101000a81548160ff0219169083151502179055508173ffffffffffffffffffffffffffffffffffffffff168373ffffffffffffffffffffffffffffffffffffffff167f17307eab39ab6107e8899845ad3d59bd9653f200f220920489ca2b5937696c3183604051611cd9919061303d565b60405180910390a3505050565b611cf18484846116ab565b611cfd84848484611fe1565b611d3c576040517f08c379a0000000000000000000000000000000000000000000000000000000008152600401611d339061307a565b60405180910390fd5b50505050565b6060600e8054611d51906135d6565b80601f0160208091040260200160405190810160405280929190818152602001828054611d7d906135d6565b8015611dca5780601f10611d9f57610100808354040283529160200191611dca565b820191906000526020600020905b815481529060010190602001808311611dad57829003601f168201915b5050505050905090565b60606000821415611e1c576040518060400160405280600181526020017f30000000000000000000000000000000000000000000000000000000000000008152509050611f7c565b600082905060005b60008214611e4e578080611e3790613608565b915050600a82611e47919061344f565b9150611e24565b60008167ffffffffffffffff811115611e90577f4e487b7100000000000000000000000000000000000000000000000000000000600052604160045260246000fd5b6040519080825280601f01601f191660200182016040528015611ec25781602001600182028036833780820191505090505b5090505b60008514611f7557600182611edb91906134da565b9150600a85611eea9190613691565b6030611ef691906133f9565b60f81b818381518110611f32577f4e487b7100000000000000000000000000000000000000000000000000000000600052603260045260246000fd5b60200101907effffffffffffffffffffffffffffffffffffffffffffffffffffffffffffff1916908160001a905350600a85611f6e919061344f565b9450611ec6565b8093505050505b919050565b505050565b611f908383612178565b611f9d6000848484611fe1565b611fdc576040517f08c379a0000000000000000000000000000000000000000000000000000000008152600401611fd39061307a565b60405180910390fd5b505050565b60006120028473ffffffffffffffffffffffffffffffffffffffff16611423565b1561216b578373ffffffffffffffffffffffffffffffffffffffff1663150b7a0261202b61150c565b8786866040518563ffffffff1660e01b815260040161204d9493929190612ff1565b602060405180830381600087803b15801561206757600080fd5b505af192505050801561209857506040513d601f19601f8201168201806040525081019061209591906125e7565b60015b61211b573d80600081146120c8576040519150601f19603f3d011682016040523d82523d6000602084013e6120cd565b606091505b50600081511415612113576040517f08c379a000000000000000000000000000000000000000000000000000000000815260040161210a9061307a565b60405180910390fd5b805181602001fd5b63150b7a0260e01b7bffffffffffffffffffffffffffffffffffffffffffffffffffffffff1916817bffffffffffffffffffffffffffffffffffffffffffffffffffffffff191614915050612170565b600190505b949350505050565b600073ffffffffffffffffffffffffffffffffffffffff168273ffffffffffffffffffffffffffffffffffffffff1614156121e8576040517f08c379a00000000000000000000000000000000000000000000000000000000081526004016121df9061323a565b60405180910390fd5b6121f1816114a0565b15612231576040517f08c379a0000000000000000000000000000000000000000000000000000000008152600401612228906130ba565b60405180910390fd5b61223d60008383611f81565b6001600360008473ffffffffffffffffffffffffffffffffffffffff1673ffffffffffffffffffffffffffffffffffffffff168152602001908152602001600020600082825461228d91906133f9565b92505081905550816002600083815260200190815260200160002060006101000a81548173ffffffffffffffffffffffffffffffffffffffff021916908373ffffffffffffffffffffffffffffffffffffffff160217905550808273ffffffffffffffffffffffffffffffffffffffff16600073ffffffffffffffffffffffffffffffffffffffff167fddf252ad1be2c89b69c2b068fc378daa952ba7f163c4a11628f55a4df523b3ef60405160405180910390a45050565b600061235961235484613386565b613355565b90508281526020810184848401111561237157600080fd5b61237c848285613594565b509392505050565b6000813590506123938161379c565b92915050565b6000813590506123a8816137b3565b92915050565b6000813590506123bd816137ca565b92915050565b6000815190506123d2816137ca565b92915050565b600082601f8301126123e957600080fd5b81356123f9848260208601612346565b91505092915050565b600081359050612411816137e1565b92915050565b60006020828403121561242957600080fd5b600061243784828501612384565b91505092915050565b6000806040838503121561245357600080fd5b600061246185828601612384565b925050602061247285828601612384565b9150509250929050565b60008060006060848603121561249157600080fd5b600061249f86828701612384565b93505060206124b086828701612384565b92505060406124c186828701612402565b9150509250925092565b600080600080608085870312156124e157600080fd5b60006124ef87828801612384565b945050602061250087828801612384565b935050604061251187828801612402565b925050606085013567ffffffffffffffff81111561252e57600080fd5b61253a878288016123d8565b91505092959194509250565b6000806040838503121561255957600080fd5b600061256785828601612384565b925050602061257885828601612399565b9150509250929050565b6000806040838503121561259557600080fd5b60006125a385828601612384565b92505060206125b485828601612402565b9150509250929050565b6000602082840312156125d057600080fd5b60006125de848285016123ae565b91505092915050565b6000602082840312156125f957600080fd5b6000612607848285016123c3565b91505092915050565b60006020828403121561262257600080fd5b600061263084828501612402565b91505092915050565b61264a61264582613520565b613663565b82525050565b6126598161350e565b82525050565b61267061266b8261350e565b613651565b82525050565b61267f81613532565b82525050565b6000612690826133b6565b61269a81856133cc565b93506126aa8185602086016135a3565b6126b38161377e565b840191505092915050565b60006126c9826133c1565b6126d381856133dd565b93506126e38185602086016135a3565b6126ec8161377e565b840191505092915050565b6000612702826133c1565b61270c81856133ee565b935061271c8185602086016135a3565b80840191505092915050565b60006127356032836133dd565b91507f4552433732313a207472616e7366657220746f206e6f6e20455243373231526560008301527f63656976657220696d706c656d656e74657200000000000000000000000000006020830152604082019050919050565b600061279b6026836133dd565b91507f4f776e61626c653a206e6577206f776e657220697320746865207a65726f206160008301527f64647265737300000000000000000000000000000000000000000000000000006020830152604082019050919050565b6000612801601c836133dd565b91507f4552433732313a20746f6b656e20616c7265616479206d696e746564000000006000830152602082019050919050565b60006128416025836133dd565b91507f43414e4e4f54204d494e54205448524f554748204120435553544f4d20434f4e60008301527f54524143540000000000000000000000000000000000000000000000000000006020830152604082019050919050565b60006128a7602d836133dd565b91507f594f552043414e2754204d494e54204d4f5245205448414e204156414c41424c60008301527f4520544f4b454e20434f554e54000000000000000000000000000000000000006020830152604082019050919050565b600061290d601c836133dd565b91507f6d6178204e4654207065722061646472657373206578636565646564000000006000830152602082019050919050565b600061294d6024836133dd565b91507f4552433732313a207472616e7366657220746f20746865207a65726f2061646460008301527f72657373000000000000000000000000000000000000000000000000000000006020830152604082019050919050565b60006129b36019836133dd565b91507f4552433732313a20617070726f766520746f2063616c6c6572000000000000006000830152602082019050919050565b60006129f36018836133dd565b91507f4e6f206d6f726520746f6b656e7320617661696c61626c6500000000000000006000830152602082019050919050565b6000612a33602c836133dd565b91507f4552433732313a206f70657261746f7220717565727920666f72206e6f6e657860008301527f697374656e7420746f6b656e00000000000000000000000000000000000000006020830152604082019050919050565b6000612a996038836133dd565b91507f4552433732313a20617070726f76652063616c6c6572206973206e6f74206f7760008301527f6e6572206e6f7220617070726f76656420666f7220616c6c00000000000000006020830152604082019050919050565b6000612aff602a836133dd565b91507f4552433732313a2062616c616e636520717565727920666f7220746865207a6560008301527f726f2061646472657373000000000000000000000000000000000000000000006020830152604082019050919050565b6000612b656029836133dd565b91507f4552433732313a206f776e657220717565727920666f72206e6f6e657869737460008301527f656e7420746f6b656e00000000000000000000000000000000000000000000006020830152604082019050919050565b6000612bcb6027836133dd565b91507f594f552043414e2754204d494e54204d4f5245205448414e204d4158494d554d60008301527f20535550504c59000000000000000000000000000000000000000000000000006020830152604082019050919050565b6000612c316020836133dd565b91507f4552433732313a206d696e7420746f20746865207a65726f20616464726573736000830152602082019050919050565b6000612c71602c836133dd565b91507f4552433732313a20617070726f76656420717565727920666f72206e6f6e657860008301527f697374656e7420746f6b656e00000000000000000000000000000000000000006020830152604082019050919050565b6000612cd76005836133ee565b91507f2e6a736f6e0000000000000000000000000000000000000000000000000000006000830152600582019050919050565b6000612d176020836133dd565b91507f4f776e61626c653a2063616c6c6572206973206e6f7420746865206f776e65726000830152602082019050919050565b6000612d57602f836133dd565b91507f4552433732314d657461646174613a2055524920717565727920666f72206e6f60008301527f6e6578697374616e7420746f6b656e00000000000000000000000000000000006020830152604082019050919050565b6000612dbd6029836133dd565b91507f4552433732313a207472616e73666572206f6620746f6b656e2074686174206960008301527f73206e6f74206f776e00000000000000000000000000000000000000000000006020830152604082019050919050565b6000612e236021836133dd565b91507f4552433732313a20617070726f76616c20746f2063757272656e74206f776e6560008301527f72000000000000000000000000000000000000000000000000000000000000006020830152604082019050919050565b6000612e896012836133dd565b91507f696e73756666696369656e742066756e647300000000000000000000000000006000830152602082019050919050565b6000612ec96031836133dd565b91507f4552433732313a207472616e736665722063616c6c6572206973206e6f74206f60008301527f776e6572206e6f7220617070726f7665640000000000000000000000000000006020830152604082019050919050565b612f2b8161358a565b82525050565b612f42612f3d8261358a565b613687565b82525050565b6000612f54828861265f565b601482019150612f648287612639565b601482019150612f748286612f31565b602082019150612f848285612f31565b602082019150612f948284612f31565b6020820191508190509695505050505050565b6000612fb382856126f7565b9150612fbf82846126f7565b9150612fca82612cca565b91508190509392505050565b6000602082019050612feb6000830184612650565b92915050565b60006080820190506130066000830187612650565b6130136020830186612650565b6130206040830185612f22565b81810360608301526130328184612685565b905095945050505050565b60006020820190506130526000830184612676565b92915050565b6000602082019050818103600083015261307281846126be565b905092915050565b6000602082019050818103600083015261309381612728565b9050919050565b600060208201905081810360008301526130b38161278e565b9050919050565b600060208201905081810360008301526130d3816127f4565b9050919050565b600060208201905081810360008301526130f381612834565b9050919050565b600060208201905081810360008301526131138161289a565b9050919050565b6000602082019050818103600083015261313381612900565b9050919050565b6000602082019050818103600083015261315381612940565b9050919050565b60006020820190508181036000830152613173816129a6565b9050919050565b60006020820190508181036000830152613193816129e6565b9050919050565b600060208201905081810360008301526131b381612a26565b9050919050565b600060208201905081810360008301526131d381612a8c565b9050919050565b600060208201905081810360008301526131f381612af2565b9050919050565b6000602082019050818103600083015261321381612b58565b9050919050565b6000602082019050818103600083015261323381612bbe565b9050919050565b6000602082019050818103600083015261325381612c24565b9050919050565b6000602082019050818103600083015261327381612c64565b9050919050565b6000602082019050818103600083015261329381612d0a565b9050919050565b600060208201905081810360008301526132b381612d4a565b9050919050565b600060208201905081810360008301526132d381612db0565b9050919050565b600060208201905081810360008301526132f381612e16565b9050919050565b6000602082019050818103600083015261331381612e7c565b9050919050565b6000602082019050818103600083015261333381612ebc565b9050919050565b600060208201905061334f6000830184612f22565b92915050565b6000604051905081810181811067ffffffffffffffff8211171561337c5761337b61374f565b5b8060405250919050565b600067ffffffffffffffff8211156133a1576133a061374f565b5b601f19601f8301169050602081019050919050565b600081519050919050565b600081519050919050565b600082825260208201905092915050565b600082825260208201905092915050565b600081905092915050565b60006134048261358a565b915061340f8361358a565b9250827fffffffffffffffffffffffffffffffffffffffffffffffffffffffffffffffff03821115613444576134436136c2565b5b828201905092915050565b600061345a8261358a565b91506134658361358a565b925082613475576134746136f1565b5b828204905092915050565b600061348b8261358a565b91506134968361358a565b9250817fffffffffffffffffffffffffffffffffffffffffffffffffffffffffffffffff04831182151516156134cf576134ce6136c2565b5b828202905092915050565b60006134e58261358a565b91506134f08361358a565b925082821015613503576135026136c2565b5b828203905092915050565b60006135198261356a565b9050919050565b600061352b8261356a565b9050919050565b60008115159050919050565b60007fffffffff0000000000000000000000000000000000000000000000000000000082169050919050565b600073ffffffffffffffffffffffffffffffffffffffff82169050919050565b6000819050919050565b82818337600083830152505050565b60005b838110156135c15780820151818401526020810190506135a6565b838111156135d0576000848401525b50505050565b600060028204905060018216806135ee57607f821691505b6020821081141561360257613601613720565b5b50919050565b60006136138261358a565b91507fffffffffffffffffffffffffffffffffffffffffffffffffffffffffffffffff821415613646576136456136c2565b5b600182019050919050565b600061365c82613675565b9050919050565b600061366e82613675565b9050919050565b60006136808261378f565b9050919050565b6000819050919050565b600061369c8261358a565b91506136a78361358a565b9250826136b7576136b66136f1565b5b828206905092915050565b7f4e487b7100000000000000000000000000000000000000000000000000000000600052601160045260246000fd5b7f4e487b7100000000000000000000000000000000000000000000000000000000600052601260045260246000fd5b7f4e487b7100000000000000000000000000000000000000000000000000000000600052602260045260246000fd5b7f4e487b7100000000000000000000000000000000000000000000000000000000600052604160045260246000fd5b6000601f19601f8301169050919050565b60008160601b9050919050565b6137a58161350e565b81146137b057600080fd5b50565b6137bc81613532565b81146137c757600080fd5b50565b6137d38161353e565b81146137de57600080fd5b50565b6137ea8161358a565b81146137f557600080fd5b5056fea26469706673582212200bf2aab6ed663e44eed64526f32b9d7a58d1266639eaf59fd8722aae21f1fcf364736f6c63430008000033697066733a2f2f516d63725858343234615161696f4e4e46546751786b56507132637532416f4b62526152694765755a4e564251792f",
    "linkReferences": {},
    "deployedLinkReferences": {}
}